:100000000C94AB030C94F2030C94F2030C94F203E3
:100010000C94F2030C94F2030C94F2030C94F2038C
:100020000C94F2030C94F2030C9445290C94172AB7
:100030000C9469240C94F2030C94F2030C94F203D4
:100040000C94F2030C94F2030C94F2030C94F2035C
:100050000C940D200C94C2240C94F2030C94F20323
:100060000C94F2030C94F2030C94F2030C94F2033C
:100070000C94F2030C94F2030C94F2030C94F2032C
:100080000C94F2030C94F2030C94F2030C94F2031C
:100090000C94F2030C94F2030C94F2030C94F2030C
:1000A0000C94F2030C94F2030C94F2031906190653
:1000B0004B064B069806B606D707D707C106560764
:1000C00067076707C707D707D707D00777087708F5
:1000D00089088908800889088908890877087708C5
:1000E00085088908890885086E1F701F751F781F8D
:1000F0007B1F7E1F811F842AAB2AA32BAB2AA32B35
:10010000F72A1A2BA32B712B802BE000E10039007A
:100110002B00350029000000000000000000000056
:10012000E3000000040014001E003A00000000007C
:10013000000000000000E2001D0016001A001F0071
:100140003B00000000004C004A0049004F001B002B
:100150000700080020003C005200000031000000B1
:100160004500510006000900150021003D00E50092
:10017000280030002E004400500019000A0017002B
:1001800022003E00380034002F002D0043002C00D8
:1001900005000B001C0023003F00000000000000D1
:1001A0002A000151E40011000D0018002400400055
:1001B00037003300130027004200E60010000E0055
:1001C0000C002500410036000F0012002600000040
:1001D00001000100010001000100005C00000000BE
:1001E00000000000000002530000C05CC35C01007E
:1001F00001000000000000000000000001000100FC
:1002000001000100010001000000000001004D009C
:10021000A80001000100C15CC45C010001004B00AA
:1002200000000100000001004E000100BF5CC65C40
:1002300001000100010001000100010001000100B6
:100240000100BE5CC75C010001000100010001006B
:1002500001000100010001000100C85C0100010073
:10026000000000000000010001000100145C01001A
:10027000C95C010001000100010001000100010052
:10028000010001000100CA5C010001000100010041
:10029000CB5C01000000E000E10039002B003500DC
:1002A0002900000000000000000000000000000025
:1002B000040014001E003A000000000000000000CE
:1002C0000000E2001D0016001A001F003B000000A5
:1002D00000004C004A0049004F001B0007000800C6
:1002E00020003C0052000000310000004500510099
:1002F00006000900150021003D00E500280030003F
:100300002E004400500019000A00170022003E0091
:10031000380034002F002D0043002C0005000B0096
:100320001C0023003F000000000000002A00010024
:10033000E40011000D0018002400400037003300D5
:10034000130027004200E60010000E000C002500FC
:10035000410036000F0012002600000000047F3F1D
:100360001F643214643214783C1E1E140A052223C2
:10037000252628292A2C2D2F3032333536383A3B82
:100380003D3E4042434547494A4C4E5051535557D4
:10039000595A5C5E6062646668696B6D6F717375F3
:1003A00077797B7D7F81838587898A8C8E909294F3
:1003B00096989A9C9E9FA1A3A5A7A8AAACAEAFB100
:1003C000B3B4B6B8B9BBBCBEBFC1C2C3C5C6C7C94A
:1003D000CACBCCCDCED0D1D2D2D3D4D5D6D7D7D804
:1003E000D9D9DADADBDBDBDCDCDCDCDCDDDDDDDD56
:1003F000DCDCDCDCDCDBDBDBDADAD9D9D8D7D7D65E
:10040000D5D4D3D2D2D1D0CECDCCCBCAC9C7C6C514
:10041000C3C2C1BFBEBCBBB9B8B6B4B3B1AFAEAC5A
:10042000AAA8A7A5A3A19F9E9C9A98969492908E05
:100430008C8A89878583817F7D7B79777573716FDE
:100440006D6B6968666462605E5C5A5957555351BA
:10045000504E4C4A4947454342403E3D3B3A383670
:10046000353332302F2D2C2A292826252322FFAA86
:100470007F55400000000000000000000000010166
:100480000203040506080A0C0F1114181C20242965
:100490002E33393F464C535B626A7179818A929A56
:1004A000A2AAB2B9C1C8CFD5DCE1E7EBF0F4F7FA04
:1004B000FCFDFEFFFEFDFCFAF7F4F0EBE7E1DCD516
:1004C000CFC8C1B9B2AAA29A928A8179716A625BD5
:1004D000534C463F39332E2924201C1814110F0C7D
:1004E0000A080605040302010100000000000000E4
:1004F00000000000010101010101010101020202ED
:1005000002020202020203030303030303030404BF
:100510000404040404050505050506060606060789
:100520000707070708080808090909090A0A0A0B42
:100530000B0B0C0C0C0D0D0D0E0E0E0F0F0F1010E3
:10054000111111121213131414151516161717186A
:100550001819191A1A1B1B1C1D1D1E1E1F202021D5
:100560002222232424252626272829292A2B2C2D1C
:100570002D2E2F30313232333435363738393A3B3D
:100580003C3D3E3F404142434445464748494A4C32
:100590004D4E4F50515354555658595A5B5D5E5FFE
:1005A000616264656668696B6C6D6F707273757794
:1005B000787A7B7D7E8082838587888A8C8E8F91F6
:1005C000939596989A9C9EA0A2A3A5A7A9ABADAF20
:1005D000B1B3B5B7BABCBEC0C2C4C6C9CBCDCFD10A
:1005E000D4D6D8DBDDDFE2E4E7E9EBEEF0F3F5F8B3
:1005F000FAFDFF0A03490044003800300000000EF5
:1006000003490044004F00420041004F0000000435
:1006100003090409023B00020100A0FA09040000DA
:100620000103010100092111010001224000070519
:10063000810308000A0904010001030000000921E8
:100640001101000122B6000705820320000A1201F1
:10065000000200000008646980000100010200013E
:1006600005010902A10185020901A100050919017D
:100670002908150025019508750181020501093039
:1006800009311581257F9502750881060938158184
:10069000257F950175088106050C0A38021581250C
:1006A0007F950175088106C0C005010980A10185FB
:1006B0000319012AB700150126B7009501751081AD
:1006C00000C0050C0901A101850419012AA0021529
:1006D0000126A002950175108100C005010906A13F
:1006E000018505050719E029E7150025019508751D
:1006F0000181020507190029EF1500250195F07504
:1007000001810205081901290595057501910295D8
:100710000175039101C005010906A101050719E052
:1007200029E71500250195087501810295017508D5
:1007300081010507190029FF150026FF00950675A0
:100740000881000508190129059505750191029593
:100750000175039101C011241FBECFEFDAE0DEBFA7
:10076000CDBF04B603FE27C080915303909154037C
:10077000A0915503B09156038730904BA740B04BE2
:10078000D1F4109253031092540310925503109217
:10079000560314BE84B7877F84BF0FB6F894A8951C
:1007A00080916000886180936000109260000FBEAD
:1007B000E0E0F8E3099511E0A0E0B1E0ECECF9E548
:1007C00002C005900D92A43CB107D9F723E0A4EC38
:1007D000B1E001C01D92A335B207E1F70E94751484
:1007E0000C94E42C0C94000081E0089581E00895BD
:1007F0000C94F60308950C94FA031F93CF93DF93A0
:1008000000D000D01F92CDB7DEB749835A836B83E7
:100810003091C60189819A81311114C0662359F043
:10082000222349F00E941B0A182F682F89819A8180
:100830000E94C40903C00E94EF09182F69817A81C0
:10084000812F04C00E941B0A69817A810F900F904A
:100850000F900F900F90DF91CF911F910C94BE10CD
:10086000FC01262F408151816281738184810C9427
:10087000FD0381E00895CF93DF93EC0160E00E94D7
:100880003004BE01DF91CF910C94FB030E94EE1265
:100890000E94D2040E947C200C942B130C942713EA
:1008A00008950E9465080E9450042FEF84E39CE0A5
:1008B000215080409040E1F700C000000C94E824F3
:1008C0000F931F93CF93DF938C0161E00E9430045C
:1008D000EC01B8010E94F803882309F44BC0B80169
:1008E000CE010E945F1F882309F444C0B801CE01E5
:1008F0000E9430218823F1F1B801CE010E948221AB
:100900008823C1F1B801CE010E94B422882391F15D
:10091000B801CE010E94791D882361F1F80182811E
:10092000882309F1CB358DE5D807C1F050F4C11506
:10093000FCE5DF0781F0CF3DDC45A9F40E94B60F4E
:1009400019C0CC35EDE5DE0761F0CD35DD4559F454
:100950000E943A0E08C00E9451040CC00E94430E2F
:1009600002C00E94460EC801DF91CF911F910F91E6
:100970000C94F40380E0DF91CF911F910F910895C3
:1009800008950C94C00481E00895CF93C82F0E946D
:10099000C304882329F0C1FD02C0479A01C04798CB
:1009A000CF9108953F9A479A0895CF93C82F0E94F8
:1009B000C1048C2F0E94C504CF910895CF93DF937B
:1009C000CDB7DEB72B970FB6F894DEBF0FBECDBF05
:1009D0004F83588769877A878B8761110E94690ED8
:1009E0009E012F5F3F4F86E0F90111928A95E9F74A
:1009F00085E0FE013796D90101900D928A95E1F7C5
:100A000089819A814C815D81452B31F09F3F31F482
:100A100091E08F3F19F403C091E001C090E090FF96
:100A200009C049815A816B817C818D819E810E94A0
:100A3000690D05C0C9010E9439048111F2CF2B96BE
:100A40000FB6F894DEBF0FBECDBFDF91CF910895F2
:100A5000FC01808191810E945D0A0895CF938823D3
:100A600009F450C0C82F8CEF8C0F813AD0F46C2F52
:100A700080910001909101010E946023882349F038
:100A80006C2F80910001909101010E94EB230E9444
:100A90009B0E6C2F80910001909101010E94E02338
:100AA0000CC080E28C0F883058F4C77081E001C020
:100AB000880FCA95EAF70E944C0ECF910C949B0EBA
:100AC000EBE5EC0FE33040F4F0E0E95AFE4F8081B3
:100AD00090E0CF910C941E23E8E5EC0FE73150F441
:100AE000F0E0EE0FFF1FE75DFE4F80819181CF9117
:100AF0000C943423CD3E30F08C2F0E940215CF9100
:100B00000C94D415CF910895882389F19CEF980F08
:100B1000913A40F4682F80910001909101010E9468
:100B2000EB230DC090E2980F983058F4877091E055
:100B300001C0990F8A95EAF7892F0E94520E0C94F2
:100B40009B0E9BE5980F933020F480E090E00C948E
:100B50001E2398E5980F973120F480E090E00C94E4
:100B600034238D3E20F00E945D150C94D415089519
:100B70001F93CF93DF93182FEB010E942E05209730
:100B800041F08FE99FE00197F1F700C00000219745
:100B9000F6CF812FDF91CF911F910C94840589337B
:100BA00019F060E070E002C060E570E00C94B805F8
:100BB000882321F00E944C0E0C949B0E08958823EC
:100BC00021F00E94520E0C949B0E0895CF92DF925A
:100BD000EF92FF920F931F93CF93DF937C01062F29
:100BE000C72FFC01D281158112951F700E94210E22
:100BF000882399F0DD2389F08C2F807F803421F0C9
:100C000080E2800F883048F082E00E94EB0E0E9464
:100C1000210E91E0D82ED92601C0D12CCC2EC29421
:100C20008FE0C8228C2D90E0FC01EA5AFF4F0C9413
:100C30003F2C8C2F807FCF70882311F0C295C07F0E
:100C4000DD2399F0CC2309F48DC180E2800F883038
:100C500010F0011104C08C2F0E944C0E03C08C2F89
:100C60000E945C0E0E949B0E7DC1802F0E94840515
:100C7000CC2309F49CC180E2800F883010F0011170
:100C800004C08C2F0E94520E03C08C2F0E94620E53
:100C90000E949B0E8CC18C2F807FCF70803211F010
:100CA000C295C07F002319F00130C9F022C0DD23B6
:100CB00071F0112341F0113031F40E947C0E8C2B25
:100CC0000E94840E74C10E947C0E8C2B1DC01123C7
:100CD00019F0113009F46BC10E94910E25C0DD237B
:100CE00021F0163008F063C10EC0153008F05FC166
:100CF0001BC0DD2361F0112331F0F701858180FFF6
:100D000031C18F7085838C2F0E94D80550C111236B
:100D100059F0093309F037C1FFEF27EE83E0F150B6
:100D200020408040E1F72DC18C2F0E94DF053FC19C
:100D30008C2F86958695837019F0813061F037C1CC
:100D4000DD2321F0802F9C2F937002C080E090E083
:100D50000E941E2334C1DD2321F0802F9C2F93702D
:100D600002C080E090E00E94342329C1802FDD235F
:100D700019F00E94021502C00E945D150E94D41550
:100D80001EC18C2F837009F045C0D11114C1402FB2
:100D9000429546954770440F440F602F6F70862F21
:100DA00090E0A0E0B0E0042E04C0880F991FAA1FB5
:100DB000BB1F0A94D2F704FF10C00FE010E020E040
:100DC00030E004C0000F111F221F331F4A95D2F7D5
:100DD000009510952095309503C000E010E0980133
:100DE000C695C695C370BC01CD01602B712B822BBB
:100DF000932BC23049F058F4C13019F00E94DA0840
:100E0000DAC00E94C808D7C00E94EC08D4C00E9473
:100E1000C608D1C0DD2319F08C2F817001C08695E2
:100E2000882309F4C8C0402F429546954770440F67
:100E3000440F602F6F70862F90E0A0E0B0E0042E8A
:100E400004C0880F991FAA1FBB1F0A94D2F704FF82
:100E500010C00FE010E020E030E004C0000F111FD0
:100E6000221F331F4A95D2F7009510952095309593
:100E700003C000E010E09801C695C695C370BC01A0
:100E8000CD01602B712B822B932BC23049F058F48B
:100E9000C13019F00E949F098EC00E948D098BC03D
:100EA0000E94B10988C00E94000985C0CF70DD236F
:100EB00039F08C2F0E942609802F0E94D8057BC014
:100EC000802F0E94DF058C2F0E94470974C0023FCB
:100ED00001F128F4003F41F0013FA1F03FC0033F82
:100EE000F9F0043F39F13AC0DD2341F0153008F044
:100EF0005EC08C2F8F710E946C0959C0163008F0AB
:100F000056C0F7CFDD2339F08C2F8F710E94260950
:100F10004EC0DD23C9F38C2F8F710E94470947C053
:100F2000DD2329F08C2F8F710E94110940C00E948F
:100F30000C093DC0DD2349F0CF718C2F0E9426099A
:100F400063E08C2F0E94D00E32C081E00E94EB0E35
:100F5000123068F182E00E94EB0E29C0DD2331F0EF
:100F6000112391F2802F0E942E0521C0112399F2A6
:100F7000093349F49FEFE7EEF3E09150E040F04091
:100F8000E1F700C00000802F0E94840510C04C2FA4
:100F90004F70602FC7010E94BA100E948B0A0FC0C9
:100FA0004C2F4F70602FC7010E94BD1008C088EF02
:100FB0008C0D843020F40E94EA220E94D504DD20AA
:100FC000C9F00E941D0E80FD15C0F70112820E941B
:100FD000170E0E942609C7010E941B080E94170EC7
:100FE000DF91CF911F910F91FF90EF90DF90CF9005
:100FF0000C944709DF91CF911F910F91FF90EF90D3
:10100000DF90CF9008950F931F93CF93DF93EC0160
:10101000688179818A810E94680A8C010E94C309D3
:101020000E94B408B801CE010E94E605DF91CF917D
:101030001F910F910895CF93DF93EC0198818981DF
:101040002B813C81232B31F08F3F31F481E09F3F96
:1010500019F403C081E001C080E080FD19C0CE0119
:101060000E94600481110CC00E94210E882381F02F
:101070008A81882369F082E0DF91CF910C94EB0E96
:10108000CE010E940308CE01DF91CF910C943B0466
:10109000DF91CF91089580E090E00E941E2380E0D0
:1010A00090E00E9434230E94690E0E94790E0E94F3
:1010B0009B0E0E9405170C94D4158091000190910D
:1010C00001010E94F6230C944B080E94590E0C94C7
:1010D0005D08E92FE295EF704E2F50E0FA0132974C
:1010E000EE30F105B0F4EA59FF4F0C943F2C803FED
:1010F00091F018F4883E68F40EC0843F51F40BC0A0
:10110000883E48F0813F29F406C093FB882780F988
:10111000089580E0089581E00895FC018081918127
:101120000E945D0A0E9469080895CF93DF9300D062
:1011300000D01F92CDB7DEB70F900F900F900F9099
:101140000F90DF91CF910895CF93DF9300D000D01F
:1011500000D0CDB7DEB726960FB6F894DEBF0FBE2F
:10116000CDBFDF91CF910895089508950C94B508EF
:101170000C94B6080E94B80860930C0270930D029C
:1011800080930E0290930F020C944B080C94BA08B3
:101190000F931F9300910C0210910D0220910E02EB
:1011A00030910F02602B712B822B932B1F910F918B
:1011B0000C94BA080F931F9300910C0210910D022A
:1011C00020910E0230910F0260237123822393231A
:1011D0001F910F910C94BA080F931F9300910C026A
:1011E00010910D0220910E0230910F02602771279D
:1011F000822793271F910F910C94BA080C94B5087D
:101200000E94FE08609308027093090280930A020C
:1012100090930B020C944B0860E070E0CB010C94AF
:1012200000090F931F9341E050E060E070E08A01F5
:101230009B0104C0000F111F221F331F8A95D2F794
:10124000C901B8011F910F910C9400090F931F93CE
:1012500041E050E060E070E004C0440F551F661F9D
:10126000771F8A95D2F78091080290910902A09188
:101270000A02B0910B028A019B01082B192B2A2B21
:101280003B2BC901B8011F910F910C9400090F93DA
:101290001F9341E050E060E070E004C0440F551F30
:1012A000661F771F8A95D2F7409550956095709587
:1012B0008091080290910902A0910A02B0910B025C
:1012C0008A019B01082319232A233B23C901B80162
:1012D0001F910F910C9400090F931F9341E050E070
:1012E00060E070E004C0440F551F661F771F8A95A9
:1012F000D2F78091080290910902A0910A02B09160
:101300000B028A019B01082719272A273B27C901BD
:10131000B8011F910F910C9400090F931F93009136
:1013200008021091090220910A0230910B02602BF1
:10133000712B822B932B1F910F910C9400090F930B
:101340001F93009108021091090220910A02309126
:101350000B0260237123822393231F910F910C941E
:1013600000090F931F930091080210910902209128
:101370000A0230910B0260277127822793271F9161
:101380000F910C94000908952BE0929F800D112479
:10139000E82FE695E695E695877051E001C0550F78
:1013A0008A95EAF785E0E89FF0011124E953FE4FA2
:1013B00020E030E070E04081CB01022E02C0969523
:1013C00087950A94E2F78170819584278523842785
:1013D00081932F5F3F4F2530310569F708952BE04A
:1013E000929F800D1124682F669566956695982FBB
:1013F000977085E0689FB001112440E050E080E0E4
:10140000FB01E40FF51FE953FE4F208130E0092E68
:1014100002C0369527950A94E2F721703327042EEF
:1014200001C0220F0A94EAF7822B4F5F5F4F4530CD
:10143000510531F70895BF92CF92DF92EF92FF925C
:101440000F931F93CF93DF938C01C0900802D0902D
:101450000902E0900A02F0900B0280910C02909138
:101460000D02A0910E02B0910F02C82AD92AEA2AD1
:10147000FB2ACFE1D0E0D701C6010C2E04C0B695FF
:10148000A795979587950A94D2F780FD04C0219778
:1014900090F7B12C07C0BC2EB8018C2F0E94F5111B
:1014A0000197A9F38B2DDF91CF911F910F91FF90A1
:1014B000EF90DF90CF90BF900895CF93DF93EC0132
:1014C0000E941B0ABE010E94F511DF91CF91089581
:1014D0001F93CF93DF93EB019091C601992321F0E5
:1014E000CB010E945D0A13C0882349F0CB010E9402
:1014F0001B0A182F682FCE010E94C40904C0CB011B
:101500000E94EF09182FBE01812F0E94F511DF9173
:10151000CF911F910895EF92FF920F931F93CF9356
:10152000DF938C01892B09F46CC0F12CEE24E39439
:10153000E8012196F8018491843740F4843008F062
:1015400051C0813081F0823019F15BC0853709F4D8
:1015500044C0A8F19CE7980F903708F052C08F77ED
:101560000E94840541C00E5F1F4FFE01849190E2EE
:10157000980F983050F48770FE2D01C0FF0F8A95A8
:10158000EAF78F2F0E946C0E14C00E942E052DC00A
:101590000E5F1F4FFE01849190E2980F983060F427
:1015A0008770FE2D01C0FF0F8A95EAF78F2F0E94EA
:1015B000720E0E949B0E19C00E94840516C00E5F19
:1015C0001F4FFE01C491CC2381F08FE99FE001976A
:1015D000F1F700C00000C150F6CF0E5F1F4FFE01B3
:1015E000F49003C00E942E058E018F2D882309F4EC
:1015F0009FCFEFE9FFE03197F1F700C00000815085
:10160000F5CFDF91CF911F910F91FF90EF9008954B
:101610001F93CF93DF93C091100216E080911102C7
:10162000C81799F0D0E01C9FF0011D9FF00D112408
:10163000EE5EFD4F4081518162817381848195818D
:101640000E94A4082196C770E9CFDF91CF911F9126
:10165000089540914202509143026091440270917A
:10166000450280914602909147020C94A4080F9382
:101670001F93CF93DF938091470282958F7009F07B
:101680005DC080914402882309F458C08091100203
:10169000109111026091420270914302C091450283
:1016A000D091460291E06F3F09F090E0292F06E0CB
:1016B000811709F443C0209721F07F3F21F030E0EB
:1016C00003C031E001C0322F90E030FD34C0089FEC
:1016D000F001099FF00D1124DF01AE5EBD4F1196A0
:1016E0003C911197371327C03C91361324C01296B2
:1016F0003C91129731111FC013964D915C91149734
:101700004C1B5D0B483C5105B0F4809147028F7033
:10171000806180934702E95EFD4F80818F70806118
:10172000808382E492E00E941B08DF91CF911F9199
:101730000F910C94080B01968770BACFDF91CF916F
:101740001F910F9108959F92AF92BF92CF92DF9217
:10175000EF92FF920F931F93CF93DF93CDB7DEB736
:1017600061970FB6F894DEBF0FBECDBF8C0185E048
:10177000F801DE011D9601900D928A95E1F7F801BE
:10178000E2809091420260914302209145023091A3
:1017900046022115310531F06F3F31F481E09F3F62
:1017A00019F403C081E001C080E0F82FF1709F2E92
:1017B00080FD3FC1F80140815181A380B48082E463
:1017C000C82E82E0D82EF0904402F501E21BF30B04
:1017D000FF2009F4D9C080914702E83CF10508F0E8
:1017E00095C0282F207F09F052C0561313C049130B
:1017F00011C0FE2CE1100EC08F70806180934702F3
:101800000E94290BC6010E941B0880914702F80123
:1018100085834CC1AB2831F05F3F31F481E04F3F0D
:1018200019F403C081E001C080E080FD03C081E0C5
:101830008E2502C080E090E0F82FF170FF2E80FF2F
:101840001CC0809110022091110236E0821709F429
:101850000BC190E0389FF001399FF00D1124EE5E2E
:10186000FD4F6181561306C06081461303C062813B
:10187000E61203C001968770E9CFFE2CEE2009F432
:1018800015C18091470281608093470254C056136E
:1018900006C0491304C0E11002C0F80199C0C80194
:1018A0000E948D08882361F1EE2051F120914702BA
:1018B000822F82958F7090E0029774F0809142029F
:1018C0009091430298878F831986BB86AA862C87BE
:1018D000CE0107960E941B0886E0F801A2E4B2E060
:1018E00001900D928A95E1F70E94370B0E94290B17
:1018F0000AC0561711F1C8010E948D0881112CC031
:10190000C8010E941B08FF24F394D0C0282F207F19
:1019100081F77A2DB98AA88A6E2D89890E94950847
:1019200082E492E00E941B0886E0F60111928A95FB
:10193000E9F70E94290BF12CB9C04913DCCFE11063
:10194000DACFF8018583C8010E941B0886E0F60102
:1019500011928A95E9F7AAC0EE2091F220914702F0
:10196000822F82958F7090E002970CF4B5CF809112
:101970004202909143029A8389831B82BD82AC828A
:101980002E83CE010196A6CFE83CF10508F044C0B5
:10199000FE2CEE2009F4B4CF561330C049132EC0EC
:1019A0002091470220FD21C0822F82958F70482F01
:1019B00050E041155105C9F0F80125834F3051051C
:1019C00041F08F5F982F9295907F822F8F70892B97
:1019D0008583C8010E941B0886E0F801A2E4B2E0FA
:1019E00001900D928A95E1F73CC086E0F801A2E4EF
:1019F000B2E001900D928A95E1F758C0C8010E94AB
:101A00008D08811169CF80914702816080934702E0
:101A1000C8010E941B084AC07A2DB98AA88A6E2D77
:101A200089890E94950886E0F60111928A95E9F766
:101A300018C0EE2009F464CFC8010E948D08F82E6A
:101A4000882309F45DCF86E0F801A2E4B2E00190BA
:101A50000D928A95E1F782E492E00E9428050E94A7
:101A6000370B0E94290B22C04D875E878D859E858E
:101A70000E945D0A292F22952F70223028F49F7032
:101A800039F0811105C00BC0243028F49F7049F44F
:101A9000805E883020F0C8010E941B089F2CF92C22
:101AA00005C0F8019581907F99F7F9CF8F2D619648
:101AB0000FB6F894DEBF0FBECDBFDF91CF911F915F
:101AC0000F91FF90EF90DF90CF90BF90AF909F90DD
:101AD00008951F93CF93DF93CDB7DEB72C970FB642
:101AE000F894DEBF0FBECDBF4F83588769877A87D2
:101AF0008B879C87CE0107960E94A30B8823D1F089
:101B00009F8188852A853B85232B31F08F3F31F4D7
:101B100081E09F3F19F403C081E001C080E080FDB7
:101B200047C04F81588569857A858B859C850E9441
:101B3000A4083EC086E0FE013796DE0111960190B2
:101B40000D928A95E1F7FF81E8856A857B856115AD
:101B5000710531F0EF3F31F481E0FF3F19F403C02C
:101B600081E001C080E080FD23C02091110230E0BF
:101B7000C9010196877099274091100250E084179F
:101B80009507F1F1F983EA837D836C8396E0929F58
:101B9000D001939FB00D1124AE5EBD4FFE01319672
:101BA00001900D929A95E1F7809311020E94080B23
:101BB00016E08091100290911102891771F1189F1F
:101BC000C00111248E5E9D4F0E94A30B882329F132
:101BD000E09110021E9FF0011124EE5EFD4F408146
:101BE000518162817381848195810E94A4088091D2
:101BF000100290E001968770992780931002D9CF48
:101C00000E9465081092110210921002E2E4F2E0C4
:101C100086E0DF011D928A95E9F72C960FB6F894BD
:101C2000DEBF0FBECDBFDF91CF911F910895809190
:101C3000480285958595859508958091480287701D
:101C4000089590914802977081E009F480E008952A
:101C50009091DB0292FB222720F9281751F080FB9C
:101C600092F99093DB028091DA029091DB020C945E
:101C7000320F08958091DB0282FB882780F991E082
:101C800089270C94280E81E00C94280E80E00C9497
:101C9000280E80916C02089590916C02892B80939C
:101CA0006C020895809590916C02892380936C0258
:101CB000089510926C02089590916B02892B809385
:101CC0006B020895809590916B02892380936B023B
:101CD000089510926B02089590916A02892B809367
:101CE0006A020895809590916A02892380936A021E
:101CF000089510926A020895809149020895089506
:101D00000C947F0E0C94800E9091DB0292FD08C023
:101D100090914902981721F0809349020C94820E09
:101D2000089580914902882329F01092490280E0A9
:101D30000C94820E0895E0910001F09101018091D0
:101D40006C028083E0910001F0910101908180910B
:101D50006B02892B8083E0910001F0910101908159
:101D600080916A02892B808380914902882381F0C7
:101D7000E0910001F09101019081892B8083809195
:101D80000001909101010E944A2381110E94910E4D
:101D900080910001909101010C94F6220C947F0E29
:101DA0009091DB0292FD10C098E0899F9001112470
:101DB000262B209348020E9426098091480285958F
:101DC000859585950C94CE0E0C94260910924802A8
:101DD00080E00C94CE0E209148028095822380935F
:101DE0004802982F977041F430E0482F082E000CDD
:101DF000550B2417350721F49091DB0292FF07C0A1
:101E00008595859585950E9447090C94E60E089561
:101E10006FEF7FEF80E090E00C94CE2C80E090E0BC
:101E20000E94AA2C21E0893E9E4F09F020E0822FDB
:101E3000089582E090E00C949C2C83E090E00C9458
:101E40009C2CCF9384E090E00E949C2CC82F82E2CF
:101E500090E00E949C2C2C2F30E0A901582BCA0145
:101E6000CF910895CF93C92F682F84E090E00E940E
:101E7000B02C6C2F82E290E0CF910C94B02CAB018F
:101E8000BC018FE090E00C94C22CAB01BC0183E15B
:101E900090E00C94C22C60E070E0CB010C94450FF4
:101EA00060E070E0CB010E943F0F0C944B0F69EE95
:101EB0007EEF80E090E00E94CE2C60E082E090E037
:101EC0000E94B02C60E083E090E00E94B02C109261
:101ED0000C0210920D0210920E0210920F0260E09E
:101EE00084E090E00E94B02C60E082E290E00E94EA
:101EF000B02C60E085E090E00E94B02C60E086E0CD
:101F000090E00E94B02C6FEF87E090E00E94B02C30
:101F100040E050E0BA0188E090E00E94C22C60E00E
:101F20008DE090E00E94B02C40E050E0BA0188E1E2
:101F300090E00E94C22C60E087E190E00E94B02C0B
:101F400040E050E0BA018CE190E00E94C22C60E0D9
:101F500070E080E290E00E94CE2C40E050E0BA01B8
:101F600088E190E00E94C22C0C94500F0C94570F03
:101F7000682F8EE090E00C94B02C0E94A724609310
:101F80008402709385028093860290938702609307
:101F9000800270938102809382029093830208955D
:101FA00085B7806885BF85B7806885BF089581E063
:101FB00008950C94D70F08950C94DB0F0C94DB0F4D
:101FC0000C94DE0F0C94DB0F0C94E20F0C94DB0FDF
:101FD0000E94D00F81ED92E10E940C250E94E60F35
:101FE0000C94E40F0E94DC0F0C94DB0F0E949224EF
:101FF0000E94DC130E94831E0E94871C0C94E00F39
:102000006F927F928F929F92AF92BF92CF92DF9208
:10201000EF92FF920F931F93CF93DF93CDB7DEB76D
:102020002A970FB6F894DEBF0FBECDBF0E94EF1304
:1020300081110E94BD0F3EE6832E32E0932E00E018
:1020400010E0C02E802F0E9412135C01F4016190F9
:1020500071904F016826792661147104B1F40F5F05
:102060001F4F0930110569F78FEF89838A831B821F
:102070000E949B248160782F9D838C8349815A81A3
:102080006B818D810E94DE043AC08091880281FDBF
:102090000E941B13D12CEE24E394F12CC3018E215A
:1020A0009F21892B29F10E94D90F8823A9F0DE8274
:1020B000CF82AE20BF2081E0AB2809F480E0888782
:1020C0000E949B248160782F9A8789874E815F8147
:1020D00068858A850E94DE04000F111FF801E2590D
:1020E000FD4F80819181E826F926F182E08207C0C8
:1020F000D394EE0CFF1CFBE0DF12D0CFB0CF0E94D8
:10210000CB1C0E94F71F0E94F2150E94EA229091B8
:102110006D028917D1F00E94EA2280936D022A96FF
:102120000FB6F894DEBF0FBECDBFDF91CF911F91E8
:102130000F91FF90EF90DF90CF90BF90AF909F9066
:102140008F907F906F900C94D5042A960FB6F894D8
:10215000DEBF0FBECDBFDF91CF911F910F91FF90DA
:10216000EF90DF90CF90BF90AF909F908F907F9037
:102170006F90089580E090E00895089523E6829F8F
:10218000C0011124FC012BE0729FE00DF11D112410
:10219000E60FF11DEE0FFF1FE65FFE4F8591949154
:1021A0000895880F991FFC01E45AFC4F8591949182
:1021B0000895CF93DF930E94FA11EC01811520E579
:1021C000920708F03FC0811540E4940708F0D2C0A0
:1021D000883E910500F5803E910508F002C1883ADD
:1021E000910570F4853A910508F0A6C081309105FB
:1021F00009F49FC008F4F2C0049708F0F2C0EEC0E2
:102200008F3B910508F4A1C0803C910508F4E6C01D
:10221000805C9109A5C0811550E2950760F4C11555
:1022200081E0D80708F0DDC0CD3ED10508F4D6C066
:10223000CE019065D7C0811520E3920708F093C0C6
:102240009F708EC0811545E5940708F046C0811542
:1022500054E5950708F0A6C0C11582E5D80718F522
:10226000C11521E5D20708F088C0CE01F4E09695AB
:102270008795FA95E1F7282F23703C2F337081E082
:1022800090E002C0880F991F3A95E2F79C68922B64
:102290002C2F2F702695269540E2249F9001112423
:1022A000822B932B9FC09E01237033279C2F9695E2
:1022B0009695C115D34508F065C041E050E002C0D5
:1022C000440F551F2A95E2F780E2989F9001112450
:1022D000CA01822B932B9C6885C0811559E595070F
:1022E00098F4C11588E5D80708F061C0C11526E546
:1022F000D20708F073C08C2F0E948E128F7190E06D
:10230000982F882790626EC081154AE5940708F4DB
:1023100053C090568115904208F060C08D2F8F7188
:102320000E948E129E01332730628F71A901582BB3
:1023300053C081E090E056C0855AC82FD0E0C857FE
:10234000DE4F888190E090644DC0885AC82FD0E05D
:10235000CC0FDD1FC65ADE4F88819981946442C03C
:102360000E94D1103FC09927D3FF02C0986C3AC099
:10237000906C38C09F70906A35C09C2F8827816F01
:10238000906A30C041E050E002C0440F551F2A95CA
:10239000E2F780E2989F90011124CA01822B932BCF
:1023A0009A6820C0982F8827846F906A1BC09C2F42
:1023B0008827806F906A16C08F700E948E129E01CF
:1023C00094E0369527959A95E1F72F7030E0322FFB
:1023D00022273069A901482BCA0104C080E090E09F
:1023E00001C0CE01DF91CF9108950E94BE100E94DE
:1023F000D91008958238910569F1B0F481339105BF
:1024000009F46DC048F48932910509F463C08A3239
:10241000910509F469C008958533910509F455C003
:1024200089339105B9F00895833E910569F138F437
:10243000803E9105B1F0823E910509F10895863EF6
:102440009105A9F1873E9105B9F1843E910509F006
:1024500064C023C02091DA0220FD4FC021FD4DC091
:1024600008958091DA0280FD44C08091DB0280FFF4
:1024700044C08091DA0284FD42C083EE4DC0809159
:10248000DA0282FF38C0F5CF8091DA0282FD33C0D4
:102490008091DB0280FD31C0ECCF8091DB0281FFB7
:1024A00032C08091DA0284FD2AC087EE35C0809167
:1024B000DA0283FF26C0F5CF8091DA0283FD21C0C6
:1024C0008091DB0281FD1FC0ECCF8091DA0285FD97
:1024D0001CC01DC08091DA0285FD19C016C0809114
:1024E000DA0286FD16C017C08091DA0286FD13C09D
:1024F00010C089E311C082EE0FC080EE0DC080E0F5
:102500000BC086EE09C084EE07C089E205C085E3F2
:1025100003C08AE201C081E390E008959091DA025D
:1025200092FF0DC0282F2871283019F4877F84600E
:1025300006C0282F2471243011F48B7F886093FF0C
:102540000DC0282F2871283119F4877E846106C0B8
:10255000282F2471243111F48B7E88612091DB02B5
:1025600020FF0DC0382F3871383019F4877F816013
:1025700006C0382F3171313011F48E7F886021FF11
:102580000DC0282F2871283119F4877E816106C07B
:10259000282F2171213111F48E7E886194FD877E70
:1025A000089580E008950C94080F0E94EF132FEF18
:1025B00086E791E0215080409040E1F700C00000A4
:1025C0000E94EF1380E00E94121385FF04C00E9456
:1025D000D3120C94E82408950C94D5120E940E0F87
:1025E000811102C00E94B60F0E94190F80938802C9
:1025F0000E94210F9093DB028093DA020E94EC127A
:102600000E941D0F682F70E080E090E00E94C608D5
:10261000609108027091090280910A0290910B0268
:102620000C94FE08E82FF0E0EE0FFF1FE251FD4F83
:10263000808191810895089580EA8A95F1F708953F
:1026400000C008950C941C1308950C9424130C944A
:1026500025130C9424130C942913F894E82FE29575
:10266000EF70F0E031A1282F2F7081E090E001C0E1
:10267000880F2A95EAF7982F9095932391A392A11A
:10268000892B82A3789408950F931F93CF93DF93A0
:10269000C6E9D1E089918F3F11F00E942D1381E0AE
:1026A000CF39D807B9F7CBE8D1E006E911E0899135
:1026B0008F3F11F00E942D130C171D07C1F7DF91FA
:1026C000CF911F910F910895AF92BF92CF92DF9259
:1026D000EF92FF920F931F93CF93DF938C01C62F3E
:1026E000D0E0CE018A569E4F6C01DC019C919F3F49
:1026F00009F457C0B62EF894E92FE295EF70F0E098
:1027000081A19F7021E030E001C0220F9A95EAF785
:10271000822B81A382A12095282322A378940E9452
:102720002013EBE8F1E020E030E0E12CF12C41E077
:1027300050E081918F3FC1F0A82FA295AF70B0E01B
:1027400090966C9170E08F70DB0102C0B595A795F3
:102750008A95E2F7A0FD08C0CA01022E02C0880FC8
:10276000991F0A94E2F702C080E090E0E82AF92A73
:102770002F5F3F4F2B303105E1F6F60180818F3F0F
:1027800011F00E942D1361E0E114F10409F460E0FE
:102790008B2D0E942213CC0FDD1FC00FD11FF98299
:1027A000E882DF91CF911F910F91FF90EF90DF9022
:1027B000CF90BF90AF9008950E944413ECEDF2E0EB
:1027C000AEEEB2E0119211921D921D9282E0EE3EA9
:1027D000F807C1F789E00E943A140C944604FF926E
:1027E0000F931F93CF93DF93CDB7DEB762970FB6EA
:1027F000F894DEBF0FBECDBF8E010F5F1F4F82E189
:10280000F80111928A95E9F7F12C6F2DC8010E9409
:102810006413F394F9E0FF12F8CF42E150E0B801FD
:102820008CED92E00E948F2CFF24F394009709F422
:10283000F12C892B41F082E1F801ACEDB2E001907E
:102840000D928A95E1F72F2D49E06EEE72E08CED46
:1028500092E00E943B140E944E048F2D62960FB6A8
:10286000F894DEBF0FBECDBFDF91CF911F910F91C6
:10287000FF9008950895FF920F931F93CF93DF93D6
:10288000F82E092F162FD72FC42F222349F081E0CD
:1028900080938B020E949B2490938A0280938902EA
:1028A00080918B028823D9F08091890290918A02CD
:1028B0000E94B324059798F0EF2DF02FA12FBD2F84
:1028C00080E090E04C2F50E08417950734F421917C
:1028D00031912D933D930196F7CF10928B02DF91AA
:1028E000CF911F910F91FF9008950E9408240E949C
:1028F00082260E949B260E94AD260E94F20FFBCFEB
:102900008091920280FF0BC06091070185E0689F73
:10291000B001112475956795759567952BC081FF5A
:1029200009C06091070185E0689FB0011124759589
:10293000679520C082FF07C06091070185E0689F0E
:10294000B001112417C0909191029923D1F06091A8
:102950000601961788F72091070185E0289F9001CE
:102960001124929FA001939F500D112470E0CA0181
:102970000E94092C6038710540F46115710519F445
:1029800006C065E070E0862F08958FE7089581E026
:1029900008958091920280FF08C06091030170E069
:1029A000759567957595679521C081FF06C0609103
:1029B000030170E07595679519C082FF04C06091AE
:1029C000030170E010C090919002992399F06091FA
:1029D00002019617A0F780910301899FC00111247D
:1029E00070E00E94092C6038710540F46115710592
:1029F00019F406C061E070E0862F08958FE708950E
:102A000081E008958D3E21F40E948014819504C0D8
:102A10008E3E29F40E9480148093960208958F3E82
:102A200021F40E948014819504C0803F29F40E9403
:102A30008014809395020895893F19F40E94C91467
:102A400005C08A3F31F40E94C91481958093970292
:102A500008958B3F21F40E94C914819504C08C3FD6
:102A600029F40E94C9148093980208959FE0980F5A
:102A7000983078F421E030E0A90102C0440F551FDE
:102A80009A95E2F7CA0190919402892B809394025F
:102A900008958D3F21F48091920281600BC08E3F9A
:102AA00021F480919202826005C08F3F29F48091C9
:102AB000920284608093920208958D3E39F4909141
:102AC000960297FF35C01092960259C08E3E29F4A7
:102AD000909196021916BCF32BC0909195028F3EEF
:102AE00029F497FF25C01092950249C0803F19F440
:102AF0001916CCF31DC090919702893F29F419163D
:102B0000BCF4109297023BC08A3F19F497FF10C0A3
:102B1000F8CF8B3F39F49091980297FF09C010923B
:102B200098022DC08C3F21F4909198021916BCF3A5
:102B30009FE0980F983080F421E030E0A90102C0B6
:102B4000440F551F9A95E2F7CA018095909194021F
:102B500089238093940213C08D3F21F480919202C7
:102B60008E7F0BC08E3F21F4809192028D7F05C035
:102B70008F3F29F4809192028B7F80939202809103
:102B80009502811106C080919602811102C01092B7
:102B9000910280919702811106C080919802811163
:102BA00002C01092900208950E949B2420919502E9
:102BB000211104C020919602222321F090938F02CC
:102BC00080938E0220919702211104C020919802D7
:102BD000222321F090938D0280938C0283E992E06E
:102BE0000C941023EF92FF920F931F93CF93DF93D8
:102BF00000D000D000D0CDB7DEB786E0E3E9F2E048
:102C0000DE01119601900D928A95E1F7E090950210
:102C1000F0909602009197021091980210929502FE
:102C2000109296021092970210929802E11003C03F
:102C3000FF2009F45DC080918E0290918F020E9466
:102C4000B324AC0190919102992339F020910801AD
:102C500030E02417350758F04BC0209109018AE075
:102C6000289F900111242417350718F041C09F3F79
:102C700019F09F5F90939102EE2061F00E94801402
:102C80001E1414F09FEF01C091E0989F902D112425
:102C900090939502FF2061F00E9480141F1414F09D
:102CA0009FEF01C091E0989F902D11249093960280
:102CB000309195023323E1F0209196022223C1F056
:102CC00045EB3403C0011124992319F09093950228
:102CD00003C081E08093950235EB2303C0011124EA
:102CE000992319F09093960203C081E08093960295
:102CF000011103C0112309F45DC080918C029091F1
:102D00008D020E94B324AC0190919002992339F076
:102D10002091040130E02417350758F04BC0209172
:102D200005018AE0289F900111242417350718F027
:102D300041C09F3F19F09F5F90939002002361F084
:102D40000E94C914101614F09FEF01C091E0989FE3
:102D5000902D112490939702112361F00E94C914C1
:102D6000111614F09FEF01C091E0989F902D11244F
:102D700090939802309197023323E1F020919802CA
:102D80002223C1F045EB3403C0011124992319F02B
:102D90009093970203C081E08093970235EB230361
:102DA000C0011124992319F09093980203C081E087
:102DB000809398028091950281110BC080919602B8
:102DC000811107C080919702811103C08091980200
:102DD00081110E94D415EB82FC820D831E8386E054
:102DE000FE013196A3E9B2E001900D928A95E1F7D8
:102DF00026960FB6F894DEBF0FBECDBFDF91CF9100
:102E00001F910F91FF90EF900895E3E9F2E086E0C3
:102E1000DF011D928A95E9F71092910210929002BB
:102E2000109292020895EF92FF920F931F93CF9307
:102E3000DF938B01682F11110AC0442329F0E82F7A
:102E4000F0E0ED50FB4F6491762F862F75C0212F57
:102E500030E0E82FF0E0442321F0ED50FB4FE49107
:102E6000F0E046E0049FC0011124CFEFD0E0BE01A6
:102E70000E94F52B4BEA4603C001479F900D112499
:102E8000800F911D800F911D982F990F890FAE0112
:102E9000421B530B4E9FD0014F9FB00D5E9FB00D54
:102EA00011249B2F189FA0011124452F55278E0117
:102EB000041B150B0E9FA0010F9F500D1E9F500D60
:102EC00011247E01E81AF108E29E8001E39E100DB4
:102ED000F29E100D1124212F3327C21BD30BCE9F3E
:102EE0009001CF9F300DDE9F300D112462307105AF
:102EF000A9F048F46115710569F061307105C9F4F4
:102F00008B2F752F0DC06430710581F058F066303D
:102F1000710579F47E2F8B2F932F0DC0832F7B2F7C
:102F20009E2F09C08E2F7B2F952F05C08E2F732FBC
:102F300002C07E2F852F692FDF91CF911F910F91B6
:102F4000FF90EF90089541E00E94131708950895AF
:102F50000E94A3170895CF93DF93762FE901682F7E
:102F6000842F0E94A817798368838A83DF91CF9189
:102F7000089580910003282F269530E02115310512
:102F800019F48170826005C02532310524F081700A
:102F9000886480930003089588E090E00C94A42C4A
:102FA000CF92DF92EF92FF926B017C010E94B917E2
:102FB000B701A60188E090E0FF90EF90DF90CF90FE
:102FC0000C94C22CE0E0F3E083E0808311828FEF69
:102FD00082838383148260817181828193810C94C6
:102FE000D0178091000380FF02C08695089580E08D
:102FF000089590910403933018F49F5F9093040315
:10300000882351F0609100037091010380910203C5
:10301000909103030C94D017089581E00C94F91754
:1030200090910403992319F09150909304038823FD
:1030300051F060910003709101038091020390911F
:1030400003030C94D017089581E00C94101870E0DD
:103050000C94922060910E018091000380FF0AC0C1
:1030600080910D0123E0829FC00111248B5F9C4F52
:103070000C94271880910F0190911001891780F707
:10308000E82FF0E09F01220F331FE20FF31FEB5FE9
:10309000FC4F1182108212828F5FF0CF909100035B
:1030A00090FF16C090910F0120911001921770F4BB
:1030B000E92FF0E0DF01AA0FBB1FEA0FFB1FEB5F58
:1030C000FC4F8183608342839F5FF0CF0C942A186A
:1030D0000895CF93DF9300D01F92CDB7DEB79091C4
:1030E000000390FF0AC09E012F5F3F4F0E94AB1765
:1030F0004B8169818A810E944E180F900F900F902A
:10310000DF91CF910895CF93DF93EC01EC81F0E054
:10311000E259FC4F4491E0E0F3E0628181810E943A
:1031200069188C818F5F8C83DF91CF910895CF9345
:10313000DF93EC01E0E0F3E0438162818C810E9447
:1031400069188C818F5F8C83DF91CF9108950F93E5
:103150001F93CF93DF9300D01F92CDB7DEB78C01C2
:103160008091990281110AC09E012F5F3F4F4FEF5E
:103170006FEF0E94AB178A8180939902F8018481D6
:10318000813051F028F0823061F4409199020AC0F8
:103190008091990240E007C06091990240E080E090
:1031A00003C040E080E060E00E944E18F801848196
:1031B00090E0019663E070E00E94092C84830F90F8
:1031C0000F900F90DF91CF911F910F910895AF92C3
:1031D000BF92CF92DF92EF92FF920F931F93CF9304
:1031E000DF9300D01F92CDB7DEB7182FF62E042F35
:1031F000E22E9091000390FF6DC0E92FE695AE2F6F
:10320000B0E0A156BE4F8C918093A5029E7F923074
:1032100061F49E012F5F3F4F812F0E94AB174B81BE
:1032200069818A810E944E1843C0823019F400914E
:1032300003033EC0863019F41091010339C0893070
:10324000D9F38931A9F5E9518E2F8170D82EE695F1
:10325000F0E0E259FB4FA590B490C12CBB246091E3
:103260001101C61618F52C2D30E0A29EC001A39EB8
:10327000900DB29E900D112470E00E94F52B812FCD
:10328000D11002C0860F01C0861B90910F01290F3B
:10329000311DA901440F551F240F351F2B5F3C4FD3
:1032A000402F6F2D0E94AB17C394D9CF0E942A18CC
:1032B00010930103F092020300930303EE2051F0F8
:1032C00060910003709101038091020390910303C8
:1032D0000E94D0170F900F900F90DF91CF911F9108
:1032E0000F91FF90EF90DF90CF90BF90AF90089537
:1032F000E0E0F3E09181282F4381628188E0890F2B
:103300000C94E71881E00C947819E0E0F3E09181E7
:10331000282F4381628188EF890F0C94E71881E0A0
:103320000C948519E0E0F3E0628128E0620F08F474
:103330006FEF282F438181810C94E71881E00C9472
:103340009219E0E0F3E0628128E0621B08F460E09B
:10335000282F438181810C94E71881E00C94A119F6
:10336000E0E0F3E0438128E0420F08F44FEF282F1C
:10337000628181810C94E71881E00C94B019E0E03F
:10338000F3E0438128E0421B08F440E0282F6281EB
:1033900081810C94E71881E00C94BF1920E00C9413
:1033A000E718FF920F931F93CF93DF93EC01F12C5B
:1033B0000FEF10E060911101F616F0F480910F010B
:1033C0002F2D30E0280F311DC901880F991F280FBC
:1033D000391F2B5F3C4F70E0C8010E94092C962FCB
:1033E0008C814091030360910203F99E800D1124AA
:1033F0000E94AB17F394DECF0E942A189A818C8129
:1034000090FF02C08F5F01C081508C83DF91CF910C
:103410001F910F91FF900895AF92BF92CF92DF92CC
:10342000EF92FF920F931F93CF93DF93FC01828162
:1034300080FF02C00FEF01C001E010E044E1A42EC4
:1034400080911101181708F043C080910F01C12E1F
:10345000D12CE601C80FD11DCE01880F991FC80FCE
:10346000D91FCB5FDC4F198218821A8234E0E32E19
:10347000F12CB12C80919B028B0D85312CF06A2DA3
:103480000E94E72B892F05C087FF03C0909111018F
:10349000890F082E000C990BC816D90691F480915B
:1034A00003038E9DA0018F9D500D112455954795C6
:1034B000559547959E0160910203809101030E94FA
:1034C000AB17B00EF1E0EF1AF108A1F61F5FB8CF0D
:1034D0000E942A1880919B02013031F4811102C0B0
:1034E00080911101815007C090E001966091110117
:1034F00070E00E94092C80939B02DF91CF911F9175
:103500000F91FF90EF90DF90CF90BF90AF90089514
:10351000CF9380910F0190911001891770F4E82FDB
:10352000F0E09F01220F331FE20FF31FEB5FFC4F10
:103530001182108212828F5FF0CFC0E06091110182
:10354000C617C0F5EC2FF0E070E0CF010E94092C07
:1035500020910F01820F20919A02022E000C330B52
:1035600090E0E217F307CCF020910C01022E000C42
:10357000330B2E173F078CF09C01220F331F820F55
:10358000931F9C012B5F3C4F40910303609102030A
:10359000809101030E94AB170BC0FC01EE0FFF1FCF
:1035A0008E0F9F1FFC01EB5FFC4F11821082128275
:1035B000CF5FC4CF0E942A1820910B0180919A02FC
:1035C000820F80939A0290910C01920F90930C01BC
:1035D00019165CF4082E000C990B4091110150E073
:1035E00041505109841795071CF0219520930B0138
:1035F000CF9108958F929F92AF92BF92CF92DF9218
:10360000EF92FF920F931F93CF93DF938C01FC01F6
:103610004481C42FD0E09E01DE010E944D2C9B010D
:10362000AC010E94632C6B017C01E0E2F0E0EC1B3A
:10363000FD0BA5E5B0E09B01AC010E94632C4B01A2
:103640005C019F01DF010E94452C9B01AC010E949F
:103650006E2C9B01AC012C0D3D1D4E1D5F1DC50147
:10366000B4010E941D2CC22FD22F2A3228F4F3E07D
:103670002F9F900111240DC025E530E02C1B31094E
:10368000C901880F991F280F391F37FF02C02F5F0C
:103690003F4F35952795C22FC095F12C85E5E82E33
:1036A000ED1A80911101F816C8F4F1FC02C08E2DBC
:1036B00001C08D2F90910F012F2D30E0290F311D6A
:1036C000A901440F551F240F351F2B5F3C4F4C2F72
:1036D000609102030E94AB17F394E3CF0E942A1873
:1036E000F8018481811102C091E003C0803219F495
:1036F0009FEF90930A0190910A01890FF80184834A
:10370000DF91CF911F910F91FF90EF90DF90CF90BD
:10371000BF90AF909F908F9008950F931F93CF937A
:10372000DF93EC0100E010E080911101282F30E0E0
:103730000217130724F590910F019801290F311DED
:10374000A901440F551F240F351F2B5F3C4F869551
:1037500090E04C81081719071CF4442331F002C093
:10376000411103C04091030301C040E06091020396
:10377000809101030E94AB170F5F1F4FD5CF0E94AE
:103780002A188C8190E00196817099278C83DF91B3
:10379000CF911F910F910895E0E0F3E080818E7F3B
:1037A000808360817181828193810E94D017109201
:1037B000A6022FEF80E792E0215080409040E1F791
:1037C00000C000000C942A18E0E0F3E080818E7FB6
:1037D00080831092A6022FEF80E792E02150804074
:1037E0009040E1F700C000000C942A181092A60245
:1037F0008091A30281110AC081E08093A30280918D
:10380000000381708093A2020C94E41B08956091E0
:103810000003669570E04BE050E082E191E00E9489
:10382000822C892B19F481E08093A6020E949B24AC
:1038300090939D0280939C0208959091000390FFC5
:1038400035C09170811102C0926006C0853210F0BF
:10385000986402C0880F982B90930003662351F060
:103860006091000370910103809102039091030322
:103870000E94D01760910003669570E04BE050E025
:1038800082E191E00E94822C892B19F01092A6020D
:1038900002C00E94071C81E080939F0240910303B5
:1038A00060910203809101030C94CE190895682F52
:1038B00090910003969581E0890F853208F081E0B0
:1038C0000C941D1C81E00C94571C682F90910003F0
:1038D00096958FEF890F09F484E20C941D1C81E00A
:1038E0000C94651C61E00C941D1CE0E0F3E0808109
:1038F0008160808386950C94721C8091000380FD0A
:103900000C94CC1B0C94751C60E00C941D1C8091D5
:10391000A40281112EC00E940E0F811104C00E94CA
:10392000B60F0E94E2170E94CC17609300037093B9
:10393000010380930203909303036E7F61F40E945E
:10394000E2170E94CC1760930003709301038093E9
:103950000203909303030E94B9171092A60280916C
:10396000000380FF03C086950E94841C81E0809341
:10397000A4020895E0E0F3E0808181608083869571
:103980000C94841C1092A3028091A20281110E94C7
:10399000BA1C0C94071C0F931F93CF93DF93809155
:1039A000A602882309F485C08091A502E091000356
:1039B000E695E81BE0939E02823049F4F0E0E65978
:1039C000FC4FE491CE2FD0E003E818E149C08630E7
:1039D00049F4F0E0E959FC4FE491CE2FD0E007E93B
:1039E00018E13EC0893051F4E695F0E0EC59FC4F07
:1039F000E491CE2FD0E001ED19E132C08F3051F4C7
:103A0000E695F0E0EF59FC4FE491CE2FD0E00CE0CA
:103A10001AE126C0853149F4F0E0E25AFC4FE49106
:103A2000CE2FD0E008E81AE11BC0883181F0833244
:103A300039F4ECE5F3E0C591D49107EA18E110C040
:103A4000843251F4C4EFD1E00DE81BE109C0C8E2B3
:103A5000D0E00AEF1AE104C0C0EDD7E007EA17E1B1
:103A600080919F02882361F010929F020E949B2404
:103A700090939D0280939C021092A1021092A0024A
:103A80000E949B24E0919C02F0919D028E1B9F0B53
:103A90008F3F9F4770F4EC0FFD1FF0939D02E09362
:103AA0009C028CE992E0F801DF91CF911F910F9178
:103AB0000994DF91CF911F910F910895882311F000
:103AC000FA0101C0FB010994CF93DF93C82FD62FD1
:103AD0000E94F1178C1740F00E94F1178D1720F407
:103AE000DF91CF910C94621C8C2FDF91CF910C94BD
:103AF000721C1F93CF93DF93FB011281112309F4F2
:103B0000BCC0EC010E94490E8272CD3CFCE5DF078F
:103B100009F497C008F043C0C73CECE5DE0709F4A0
:103B20007CC0D8F4C43C9CE5D90709F46AC038F4D9
:103B3000C33CDC4509F0A4C00E947D1CA0C0C53C6C
:103B40009CE5D90709F462C0C63CDC4509F098C081
:103B50004FE859E162E879E15DC0CA3CFCE5DF0766
:103B600009F465C070F4C83CECE5DE0709F45AC0FE
:103B7000C93CDC4509F084C04EE959E16DEA79E1C0
:103B800049C0CB3C9CE5D90709F456C0CC3CDC4588
:103B900009F076C044E258E16DE078E13BC0C23DF7
:103BA000FCE5DF0709F45AC098F4CF3C9CE5D9073F
:103BB00009F44EC008F44AC0C03DFCE5DF0709F433
:103BC0004AC0C13DDC4509F05BC06EE089E04EC0F3
:103BD000C53D9CE5D90709F447C050F4C33DFCE559
:103BE000DF07F9F1C43DDC4509F04AC088E142C075
:103BF000C63D9CE5D907E9F1CE35DD4509F43FC066
:103C00003FC04FE65CE162E67CE104C042E65CE175
:103C10006FE67CE10E945E1D32C042E859E16FE828
:103C200079E1F8CF4DEA59E16EE979E1F3CF4BEC58
:103C300059E16CEB79E1EECF4CEB59E16BEC79E1BA
:103C4000E9CF4DE058E164E278E1E4CF81E012C0D1
:103C500065E082E00BC068E086E008C064E18FE0C8
:103C600005C067E185E102C062E289E10E94641D4E
:103C700006C083E20E94721C02C011E001C010E085
:103C8000812FDF91CF911F91089586E090E00C94F1
:103C90009C2C682F86E090E00C94B02C809141031E
:103CA00084708961809341030C94491E8091410383
:103CB00086958695869508958091410381FD07C07C
:103CC0008260809341030E94491E0C94F81F08955E
:103CD0008091410381FF07C08D7F809341030E9443
:103CE000491E0C94042008958091410381FD0C9499
:103CF000681E0C945C1E8091410386958170089526
:103D000080911D0108950E940E0F811104C00E9430
:103D1000B60F0E944E1E0E94451E80934103282F1D
:103D200026952695269530E02430310524F08770BD
:103D30008861809341038091410380FF04C0869590
:103D40008695869501C080E00C94C71F20914103A1
:103D5000822F869586958695482F50E043305105F1
:103D600054F48F5F982F990F990F990F822F8770B6
:103D7000892B8093410380914103816080934103AB
:103D80000E94491E809141038695869586950C94E4
:103D9000C71F80914103982F969596959695A1F00F
:103DA000915E990F990F990F8770892B809341032A
:103DB000887F91E009F490E08091410390FB80F9C5
:103DC000809341030E94491E809141038695869508
:103DD00086950C94C71F8091410380FD13C08160BC
:103DE00080934103813019F489E0809341038091ED
:103DF00041030E94491E80914103869586958695D0
:103E00000C94C71F08958091410380FF08C08E7FE6
:103E1000809341030E94491E80E00C94C71F0895BF
:103E20008091410380FD0C94031F0C94EB1E909134
:103E30004103892F8695869586958F5F8F71977040
:103E4000843038F4880F880F880F892B80934103C2
:103E500002C09093410380914103887F91E009F46F
:103E600090E08091410390FB80F9809341030E9490
:103E7000491E809141038695869586950C94C71FAF
:103E8000843008F083E0909141039770282F220F2F
:103E9000220F220F922B90934103987F21E009F487
:103EA00020E09091410320FB90F9909341030C9402
:103EB000C71F0E94401F809141030C94491EFC01C2
:103EC000DB0112968C918823F9F0EC5BFC45E7301E
:103ED000F105D8F4EC58FF4F0C943F2C83E001C05F
:103EE00080E00E94591F80E008950E94C91EFBCF08
:103EF0000E94A61EF8CF0E94101FF5CF0E94171F28
:103F0000F2CF0E94741EEFCF81E00895269A2E987A
:103F100008952E980895CF92DF92EF92FF928C37FA
:103F200024E1920728F469E070E00E94F52B29C093
:103F3000A0E0B0E08A50974DAF4FBF4F6627782F73
:103F4000892F9A2F25EF38E241E050E00E941D2C86
:103F500069017A01CA01B9010E94D72B9B01AC010A
:103F6000C701B6010E94D72BBB27A92F982F872FF7
:103F7000009721E0A207B10511F0BC0102C06FEF6C
:103F80007FEFCB01FF90EF90DF90CF900895CF931C
:103F9000C82F843050F4811109C0809180008F7D3A
:103FA000809380000E94891F06C0C3E0809180003A
:103FB0008062809380002C2F30E0AFEFBFEF0E9433
:103FC0004D2C23E030E040E050E00E941D2CB42F47
:103FD000A32F922F8827892F9A2FAB2FBB270E94C0
:103FE0008B1F90938B0080938A00CF910895089542
:103FF0001092A8021092A7021092A902EFE6F0E038
:104000008081816080830895EFE6F0E080818E7F7B
:1040100080830E94561E0C94C71F1F920F920FB6EA
:104020000F9211242F933F934F935F936F937F933E
:104030008F939F93AF93BF93CF93EF93FF930E9480
:10404000801E4091A7025091A8024F5F5F4F94EFEE
:10405000899F90011124CA01B9010E94F52B909308
:10406000A8028093A702B901660F672F661F770B1E
:1040700071950E94F52B6F778091A902823019F417
:10408000603451F404C0813039F46F3729F48091E1
:104090006F008E7F80936F00E62FF0E0ED58FB4FAE
:1040A000C4910E94561E282F41E051E0C49FC001D8
:1040B000C59F900D112463E070E00E94F52B269FB0
:1040C000C001279F900D11240E948B1F90938B009D
:1040D00080938A00FF91EF91CF91BF91AF919F9113
:1040E0008F917F916F915F914F913F912F910F90A1
:1040F0000FBE0F901F9018950E94861F82E280933A
:10410000800089E1809381008FEF9FEF909387007B
:10411000809386000E94831E0E947B1E81110C9456
:10412000F81F08956A9A2EB12B7F3EB134604FB7C5
:10413000F894FC01CB01880F991F680F791F6E0F4F
:104140007F1FE617F70789F0819198E03EB90000DC
:1041500000C087FF2EB9880F000000C000C000C05B
:104160002EB900C09A9591F7ECCF4FBF8FE594E040
:104170000197F1F700C0000008950F931F93CF93AC
:10418000DF93C42FD22FFC0182818823C9F0409392
:10419000AC020E949B249093AB028093AA0280E21F
:1041A0008C0F883008F057C0C77081E001C0880FBD
:1041B000CA95EAF7DF91CF911F910F910C94D80522
:1041C0008091AC02481330C08091AA029091AB025A
:1041D0000E94B324883C910538F510E21D0FCD17DD
:1041E000B9F080E28C0F883040F4C77081E001C0E4
:1041F000880FCA95EAF70E94DF05183028F581E09C
:104200009D2F977001C0880F9A95EAF70E94D805F4
:10421000802F0E94CF051830F0F4D77081E001C0E4
:10422000880FDA95EAF70AC080E28C0F883098F49C
:10423000C77081E001C0880FCA95EAF7DF91CF917E
:104240001F910F910C94DF05802FDF91CF911F916B
:104250000F910C94CF05DF91CF911F910F9108958D
:104260000F939C01CB01243F4CE5340731F188F4D6
:10427000293DFCE53F07D9F02A3D4CE5340779F1AB
:10428000283D3C45A9F506E221EE41EE68ED7CE5CE
:104290002BC0263FFCE53F07E1F0A8F0273F3C4557
:1042A00039F507E225EE46EE67EF7CE51DC007E233
:1042B00025EE45EE69ED7CE517C006E221EE40EE05
:1042C00064EF7CE511C007E225EE44EE65EF7CE586
:1042D0000BC006E221EE42EE66EF7CE505C008E287
:1042E00021E045EE6AED7CE50E94BD2080E008C03B
:1042F000FC018281882319F01092AC0201C081E098
:104300000F910895CF93DF93EC01FB018281882305
:1043100009F426C1C430FDE5DF0760F4CB3F9CE51E
:10432000D90768F49E0122503C452431310508F03C
:1043300018C105C0C236EDE5DE0709F012C10E94C2
:10434000210F9093DB028093DA02C031FCE5DF0796
:1043500009F4CAC008F041C0C8309CE5D90709F487
:10436000A4C0F0F4C430FCE5DF0709F48CC068F4A5
:10437000C2309CE5D90709F482C0C330DC4509F09E
:10438000E5C08091DA028260DFC0C630FCE5DF075D
:1043900009F483C008F085C08091DA028860D4C037
:1043A000CC309CE5D90709F490C068F4CA30FCE52C
:1043B000DF0709F47EC008F084C00E946508809180
:1043C000DA028068C1C0CE309CE5D90709F481C00B
:1043D00008F086C08091DA0294C0CD3FFCE5DF078B
:1043E00009F47BC038F5C4319CE5D90709F49AC0BB
:1043F00058F4C231FCE5DF0709F47AC008F07EC04A
:104400008091DA028F7BA0C0CB3F9CE5D907F1F108
:1044100008F03FC0C531DC4509F098C08091DA0250
:1044200082FB222720F991E0922790FB82F990FBF2
:1044300083F98AC0C1308DE5D80709F467C050F40C
:104440008091DB02CF3FECE5DE07C1F108F05BC0F5
:104450008D7F65C0C3308DE5D80709F471C008F4BD
:104460006DC0C236DD4509F071C08091DA0284FB6F
:10447000222720F991E0922790FB84F965C0809172
:10448000DA02816061C08091DA0216C08091DB029D
:1044900016C08091DB02826042C08091DA028061A6
:1044A00053C08091DA0280624FC08091DA0280644A
:1044B0004BC08091DA028860846046C0826081606F
:1044C0002EC08091DA028E7F3FC08091DA028D7F0C
:1044D0003BC08091DA02877F37C08091DB0214C035
:1044E0008091DA028F7E30C08091DA028F7D2CC0FD
:1044F0000E9465088091DA028F7726C08091DA02E7
:10450000877F8B7F21C08D7F8E7F09C08091DB02EA
:10451000982F909591708E7F892B90FB81F98093D5
:10452000DB0214C00E9465088091DA0287FB222713
:1045300020F991E0922790FB87F906C081E001C045
:1045400080E00E94B80F02C08093DA028091DA0204
:104550009091DB020E94320F0E94650880E001C04A
:1045600081E0DF91CF910895CF93DF9386319C4511
:1045700041F5EB010E94490E982F8A81209100019C
:1045800030910101882379F09A7A81E009F480E082
:104590008093AD02911102C069E201C065E3C901D7
:1045A0000E94E0230AC08091AD02811102C069E23D
:1045B00001C065E3C9010E94EB230E949B0E80E0CD
:1045C00001C081E0DF91CF9108959093B302809371
:1045D000B2020895E091B202F091B302309721F057
:1045E0000190F081E02D099480E00895E091B202FD
:1045F000F091B302309799F020912801222359F0CD
:104600002091DA0227FF07C0DC012C9111962C9330
:10461000119725E02C930280F381E02D09940895F1
:10462000E091B202F091B302309739F022E0DC0160
:104630002C930480F581E02D099408952091B00217
:104640003091B1022817390771F09093B10280932D
:10465000B002E091B202F091B302309721F00680EF
:10466000F781E02D099408952091AE023091AF02B8
:104670002817390771F09093AF028093AE02E09152
:10468000B202F091B302309721F00084F185E02D61
:1046900009940895FC01329680912801882331F015
:1046A0008091DA0287FF02C09EE101C096E080E0BF
:1046B000915028F021912223D9F38F5FF9CF0895EB
:1046C000662351F1209128012223E9F02091DA029A
:1046D00027FF19C0462F4695469546954E31E0F482
:1046E000677021E030E002C0220F331F6A95E2F7C5
:1046F000FC01E40FF11D828190E02823392381E041
:10470000232B69F409C0FC013296089621916217A7
:1047100029F0E817F907D1F780E0089581E00895BE
:104720009C01FC0132969FEF80E04191461789F091
:104730009F3F19F4411101C0982F8F5F8630A9F770
:104740009F3F39F0F901E90FF11D97FDFA9562835A
:10475000089508959C012A5F3F4FFC014281461352
:1047600001C01282019682179307B9F70895262F88
:104770002695269526952E3168F4FC01E20FF11D51
:10478000677021E030E001C0220F6A95EAF782816C
:10479000282B22830895262F2695269526952E319F
:1047A00070F4FC01E20FF11D677021E030E001C000
:1047B000220F6A95EAF720958281282322830895A3
:1047C00020912801222329F02091DA0227FD0C9460
:1047D000B7230C94902320912801222329F02091C3
:1047E000DA0227FD0C94CB230C94AA2320912801F4
:1047F000FC013296222331F08091DA0287FF02C059
:104800008EE101C086E0DF011D928A95E9F70895E7
:10481000089508950C9409240C940924CF930E94C0
:104820000C240E94EF130E940A24C0E08C2F0E94E7
:104830001213892B29F4CF5FC930C1F780E001C082
:1048400081E0CF9108950C9409240C942324809145
:104850004A03843009F42EC00E94252480E00E947F
:10486000C71F80E00E94D5040E94F61B1092B4027C
:1048700020E488E190E00FB6F894A895809360005A
:104880000FBE2093600083B7817F846083BF83B7AE
:10489000816083BF7894889583B78E7F83BF0FB67E
:1048A000F894A895809160008861809360001092D0
:1048B00060000FBE08950C9409240E9465080E94B0
:1048C000831E0E94EA220E94D5040E94C21C0C94FE
:1048D0005B241F920F920FB60F9211248F939F9318
:1048E000AF93BF938091B402811113C080914203B2
:1048F00090914303A0914403B09145034196A11DBB
:10490000B11D8093420390934303A0934403B0935B
:104910004503BF91AF919F918F910F900FBE0F9064
:104920001F90189582E084BD93E095BD9AEF97BDE6
:1049300080936E0008952FB7F89480914203909170
:104940004303A0914403B09145032FBF08952FB7AF
:10495000F8946091420370914303809144039091D5
:1049600045032FBF08959C014FB7F89480914203EF
:1049700090914303A0914403B09145034FBF821B24
:10498000930B089578941F920F920FB60F921124F3
:104990008F939F93AF93BF93809142039091430372
:1049A000A0914403B09145030196A11DB11D8093D0
:1049B000420390934303A0934403B0934503BF91F4
:1049C000AF919F918F910F900FBE0F901F901895F0
:1049D00081E08093E00080E28093D8001092C900CB
:1049E0008FE19EE40197F1F700C0000087E090EBB3
:1049F000DC018093530390935403A0935503B09329
:104A000056039CE088E10FB6F894A8958093600067
:104A10000FBE90936000FFCF9093C5018093C401B7
:104A200008958091D802089590914A03943031F509
:104A30008093B5027093B7026093B60282E08093D0
:104A4000E9008FEF9091E800815095FD06C095ED4B
:104A50009A95F1F700008111F5CF8091E80085FF6C
:104A60000DC040E050E063E070E085EB92E00E9412
:104A700039278091E8008E778093E8000895BC0183
:104A800084E00C941425BC0183E00C94142522E0EE
:104A90002093E9002FEF3091E800215035FD06C04A
:104AA00035ED3A95F1F700002111F5CF2091E8009E
:104AB00025FF0BC040E050E066E070E00E9439271F
:104AC0008091E8008E778093E8000895CF93DF937C
:104AD00020912801222339F02091DA0227FF03C018
:104AE00060E222E002C068E021E02093E9002FEFBD
:104AF0003091E800215035FD06C035ED3A95F1F7CB
:104B000000002111F5CF2091E80025FF1DC0EC0128
:104B100080912801811105C040E050E068E070E01C
:104B200003C070E040E050E0CE010E943927809140
:104B3000E8008E778093E80080E2FE01A8EBB2E007
:104B400001900D928A95E1F7DF91CF9108958091C0
:104B50004903811109C00E94CA280E942729809117
:104B6000E20084608093E200089510924903089562
:104B700008950895089542E061EC81E00E94432881
:104B800042E261EC82E00C94432880914C03833034
:104B900009F460C030F4813071F0823009F499C0BA
:104BA00008958A3009F485C08B3009F46BC08930D0
:104BB00009F0A7C020C080914B03813A09F0A1C041
:104BC0008091E800877F8093E80080914F03909167
:104BD0005003892B21F460E288EB92E003C060E08F
:104BE00080E090E070E00E9484278091E8008B775D
:104BF0008093E800089580914B03813209F081C0D1
:104C000080914F0390915003029708F07AC08091F1
:104C1000E800877F8093E8008091E80082FD05C06E
:104C200080914A038111F8CF6CC02091F3008091EC
:104C3000F20090E0922B029729F48091F1008B7F93
:104C4000813021F48091F1008093D8028091E800B6
:104C50008B7753C080914B03813A09F052C0809109
:104C60004F0390915003892B09F04BC08091E800CD
:104C7000877F8093E8008091E80080FFFCCF8091DF
:104C8000280136C080914B038132D9F580914F03C2
:104C900090915003892BA9F58091E800877F80933C
:104CA000E8000E94782880914D03809328010C949D
:104CB000650880914B03813221F58091E800877F60
:104CC0008093E8000E94782880914E038093D90257
:104CD000089580914B03813AA1F48091E800877F89
:104CE0008093E8008091E80080FFFCCF8091D9029A
:104CF0008093F1008091E8008E778093E8000C9417
:104D00007828089584B7877F84BF0FB6F894A89554
:104D100080916000886180936000109260000FBEF7
:104D200090E080E80FB6F894809361009093610062
:104D30000FBE0C94E80F0E94CA280E942729E2EEB9
:104D4000F0E080818460808378940E94BC2B0E9474
:104D5000F60F8EE191E00C94E52280914A038530B4
:104D6000A9F480914A03853079F40E942724809128
:104D700048038823B1F30E940E24882391F30E94F4
:104D800023270E946508EDCF0E945D240C9400103B
:104D90000C94CA26292F332723303105C9F060F43B
:104DA0002130310581F02230310509F044C08BE318
:104DB00090E023E136E043C021323105E1F02232B8
:104DC000310549F138C082E190E02EE436E037C089
:104DD00099278130910549F028F0029761F5E3EFBA
:104DE000F5E005C0EFE0F6E002C0EFEFF5E08491FA
:104DF00090E09F0124C06115710541F0613071059B
:104E0000D1F489E090E02EE336E019C089E090E02B
:104E100025E236E014C06115710541F0613071057D
:104E200051F486EB90E020E636E009C080E490E0A3
:104E300026E137E004C080E090E020E030E0FA01B5
:104E400031832083089580E189BD82E189BD09B461
:104E500000FEFDCF8091D8008F7D8093D800809197
:104E6000E00082608093E0008091E00081FDFCCF53
:104E70000895CF92DF92EF92FF920F931F93CF93FB
:104E8000DF93EC018B017A010E949728811133C0D6
:104E9000E114F10439F0F70180819181081B190BAD
:104EA000C80FD91FC12CD12C0115110519F1809102
:104EB000E80085FD16C08091E8008E778093E800B9
:104EC000E114F10449F0F70180819181C80ED91EE7
:104ED000D182C08285E00FC00E949728882321F3E9
:104EE0000AC089918093F10001501109FFEFCF1A98
:104EF000DF0ADACF80E0DF91CF911F910F91FF9011
:104F0000EF90DF90CF90089520915103309152039C
:104F10002617370748F06115710539F42091E8002C
:104F20002E772093E80001C0B901FC0120E0611553
:104F3000710579F180914A038823F1F18530F1F10F
:104F40008091E80083FD3CC08091E80082FD2EC086
:104F50008091E80080FFEBCF2091F3008091F20078
:104F600090E0922B6115710551F08830910538F46D
:104F700021912093F100615071090196F3CF21E056
:104F8000089709F020E08091E8008E778093E80090
:104F9000CECF2111CFCF0AC080914A03882361F080
:104FA000853061F08091E80083FD0AC08091E800BF
:104FB00082FFF2CF80E0089582E0089583E00895B3
:104FC00081E008952091510330915203261737074D
:104FD00048F06115710539F42091E8002E7720938F
:104FE000E80001C0B901FC0120E06115710591F1F3
:104FF00080914A03882309F440C0853009F43FC0FA
:105000008091E80083FD3DC08091E80082FD2FC0C3
:105010008091E80080FFE9CF2091F3008091F200B9
:1050200090E0922B6115710559F08830910540F49C
:1050300024912093F1003196615071090196F2CFCD
:1050400021E0089709F020E08091E8008E778093B6
:10505000E800CBCF2111CCCF0AC080914A0388232E
:1050600061F0853061F08091E80083FD0AC0809195
:10507000E80082FFF2CF80E0089582E0089583E0A7
:10508000089581E00895982F973068F59093E9008E
:10509000981739F07091EC002091ED005091F000DC
:1050A00003C0242F762F50E021FD02C09F5FECCF7C
:1050B0003091EB003E7F3093EB003091ED003D7F6F
:1050C0003093ED003091EB0031603093EB00709342
:1050D000EC002093ED005093F0002091EE0027FDAE
:1050E000E5CF80E008958F708093E90081E0089516
:1050F00080914B0387FF11C08091E80082FD05C0BD
:1051000080914A038111F8CF11C08091E8008B771C
:105110000BC080914A03882349F08091E80080FF0A
:10512000F8CF8091E8008E778093E8000895209171
:10513000E4003091E50095E64091EC00842F817009
:1051400040FF23C08091E80080FD1DC080914A038C
:10515000882399F0853099F08091EB0085FD11C08E
:105160004091E4005091E5002417350729F3915050
:1051700011F09A01E1CF84E0089582E0089583E080
:10518000089581E0089580E008954091E80042FF8D
:10519000DDCF08950E9438290E944029E0EEF0E01A
:1051A000808181608083E8EDF0E080818F7780836B
:1051B00019BCA7EDB0E08C918E7F8C9380818F7E9F
:1051C00080831092490308950F931F93CF93DF9329
:1051D0000E9438290E944029C8EDD0E088818F774D
:1051E000888388818068888388818F7D888319BCC3
:1051F00010924A03109246031092480310924703FC
:1052000000EE10E0F80180818B7F808388818160CF
:10521000888342E060E080E00E944328E1EEF0E015
:1052200080818E7F8083E2EEF0E0808181608083E8
:10523000808188608083F80180818E7F808388816F
:1052400080618883DF91CF911F910F910895E8EDE0
:10525000F0E080818F7E8083E7EDF0E080818160E7
:10526000808384E082BF81E0809349030C94E4282A
:10527000E8EDF0E080818E7F80831092E200089557
:105280001092DA001092E10008951F920F920FB66B
:105290000F9211242F933F934F935F936F937F93BC
:1052A0008F939F93AF93BF93EF93FF938091E10010
:1052B00082FF0BC08091E20082FF07C08091E10075
:1052C0008B7F8093E1000E94BB2B8091DA0080FFEE
:1052D0001FC08091D80080FF1BC08091DA008E7FB4
:1052E0008093DA008091D90080FF0DC080E189BDF4
:1052F00082E189BD09B400FEFDCF81E080934A03BD
:105300000E94A72505C019BC10924A030E94B5252A
:105310008091E10080FF19C08091E20080FF15C0FC
:105320008091E2008E7F8093E2008091E2008061B4
:105330008093E2008091D80080628093D80019BCED
:1053400085E080934A030E94B9258091E10084FFA3
:1053500030C08091E20084FF2CC080E189BD82E1F1
:1053600089BD09B400FEFDCF8091D8008F7D809368
:10537000D8008091E1008F7E8093E1008091E2006F
:105380008F7E8093E2008091E20081608093E20052
:1053900080914603882311F084E007C08091E300E8
:1053A00087FD02C081E001C083E080934A030E9430
:1053B000BA258091E10083FF29C08091E20083FF3C
:1053C00025C08091E100877F8093E10082E0809397
:1053D0004A03109246038091E1008E7F8093E100A2
:1053E0008091E2008E7F8093E2008091E2008061F4
:1053F0008093E20042E060E080E00E9443288091D8
:10540000F00088608093F0000E94B825FF91EF9132
:10541000BF91AF919F918F917F916F915F914F91CC
:105420003F912F910F900FBE0F901F9018951F92D4
:105430000F920FB60F9211242F933F934F935F93C8
:105440006F937F938F939F93AF93BF93CF93DF938C
:10545000EF93FF93C091E900CF708091EC00D82FBB
:10546000D17080FDD0E81092E9008091F000877F34
:105470008093F00078940E945B2A1092E90080915A
:10548000F00088608093F000CD2BCF70C093E900CE
:10549000FF91EF91DF91CF91BF91AF919F918F914C
:1054A0007F916F915F914F913F912F910F900FBE20
:1054B0000F901F9018951F93CF93DF93CDB7DEB752
:1054C000AA970FB6F894DEBF0FBECDBFEBE4F3E0B2
:1054D0008091F100819323E0E335F207C9F70E9440
:1054E000C5258091E80083FF2EC180914B039091E8
:1054F0004C03492F50E04A30510508F024C1FA010D
:10550000E558FF4F0C943F2C803821F0823809F089
:105510001AC108C08091470390914803992389F0EC
:1055200082600FC080914F038F70873008F00BC1ED
:105530008093E9008091EB0085FB882780F9109229
:10554000E9009091E800977F9093E8008093F10044
:105550001092F100D1C0282F2D7F09F0F4C08823CC
:1055600019F0823061F0EFC080914D03813009F075
:10557000EAC0933009F080E0809348032EC0809108
:105580004D0381112AC080914F038F702FEF280F98
:10559000263008F0D8C08093E9002091EB0020FF6E
:1055A0001CC0933021F48091EB00806214C0909174
:1055B000EB0090619093EB0021E030E0A90102C084
:1055C000440F551F8A95E2F74093EA001092EA00D3
:1055D0008091EB0088608093EB001092E90080914D
:1055E000E800877F8093E8000E947828ACC0811192
:1055F000AAC010914D031F778091E3008078812B22
:105600008093E3008091E800877F8093E8000E9408
:1056100078288091E80080FFFCCF8091E3008068CB
:105620008093E300111102C082E001C083E0809307
:105630004A0389C08058823008F085C080914D03AC
:1056400090914E038C3D53E0950779F583E08A8372
:105650008AE289834FB7F894DE01139620E03EE09A
:1056600051E2E32FF0E050935700E49120FF03C094
:10567000E295EF703F5FEF708E2F90E0EA3010F010
:10568000C79601C0C0968D939D932F5F243149F733
:105690004FBF8091E800877F8093E8006AE270E066
:1056A000CE0101960E94842716C060914F0370912D
:1056B0005003AE014F5F5F4F0E94C826BC01892B8B
:1056C00009F441C09091E800977F9093E8008981A8
:1056D0009A810E94E2278091E8008B778093E8000E
:1056E00032C0803881F58091E800877F8093E800A0
:1056F000809146038093F1008091E8008E7772CF0D
:10570000811121C080914D0390914E0399270297FA
:10571000D4F48091E800877F8093E80080914D0366
:10572000809346030E94782880914603811106C029
:105730008091E30087FD02C081E001C084E0809396
:105740004A030E94BB258091E80083FF0AC0809134
:10575000E800877F8093E8008091EB00806280936F
:10576000EB00AA960FB6F894DEBF0FBECDBFDF9157
:10577000CF911F9108950895CF9380914A03882374
:10578000A1F0C091E900CF709091EC00892F817059
:1057900090FD80E8C82B1092E9008091E80083FD1D
:1057A0000E945B2ACF70C093E900CF910895DB017E
:1057B0008F939F930E94632CBF91AF91A29F800D06
:1057C000911DA39F900DB29F900D1124089587FB0A
:1057D000082E062687FD819567FD61950E94762C2F
:1057E0000EF4919507FC81950895AA1BBB1B51E10E
:1057F00007C0AA1FBB1FA617B70710F0A61BB70B41
:10580000881F991F5A95A9F780959095BC01CD01E5
:10581000089597FB072E16F4009407D077FD09D062
:105820000E94F52B07FC05D03EF4909581959F4F83
:105830000895709561957F4F0895A1E21A2EAA1BD5
:10584000BB1BFD010DC0AA1FBB1FEE1FFF1FA21730
:10585000B307E407F50720F0A21BB30BE40BF50B2D
:10586000661F771F881F991F1A9469F760957095B6
:10587000809590959B01AC01BD01CF010895EE0F7D
:10588000FF1F0590F491E02D09940E944D2C3323C5
:1058900012F48A1B9B0B0C945E2CA29FB001B39F49
:1058A000C001A39F700D811D1124911DB29F700D29
:1058B000811D1124911D08950E944D2CB7FF08955C
:1058C000821B930B08950E944D2CA59F900DB49FB1
:1058D000900DA49F800D911D11240895B7FF0C9485
:1058E000632C0E94632C821B930B0895991B79E013
:1058F00004C0991F961708F0961B881F7A95C9F760
:1059000080950895FC014150504030F001900616FA
:10591000D1F73197CF010895882799270895FB0182
:10592000DC0104C08D910190801921F44150504058
:10593000C8F7881B990B0895F999FECF92BD81BDD8
:10594000F89A992780B50895A6E1B0E044E050E0C8
:105950000C94D62CA8E1B0E042E050E00C94D62C98
:10596000262FF999FECF92BD81BDF89A019700B418
:10597000021639F01FBA20BD0FB6F894FA9AF99AB8
:105980000FBE08950396272F0E94B12C0E94B02CC1
:10599000252F0E94B12C242F0C94B12C0196272F77
:1059A0000E94B12C0C94B02CDC01CB01FC01F999C4
:1059B000FECF06C0F2BDE1BDF89A319600B40D925B
:0C59C00041505040B8F70895F894FFCF14
:1059CC004A022808641E140A321E01010200140047
:1059DC00141401191A1B1C1D1E1F2021220611252F
:1059EC006625472543253F2501E200E900EA00B57D
:1059FC0000B600B700CD008301CC008A019201945F
:105A0C00012102230224022502260227022A02B3C4
:105A1C0000B4006F007000818283E200E900EA00AC
:105A2C00B500B600B700CD008301CC008A0192010D
:105A3C0094012102230224022502260227022A02B3
:105A4C00B300B4006F007000818283373332313081
:105A5C00C6F1F4F5F6F790919293959496973400DD
:105A6C0001020202020606060909090909090F0FBB
:105A7C000F0F0F0F151515181919191919191919BF
:045A8C00191923249D
:00000001FF
